S01700004763634170706C69636174696F6E312E737265635B
S11300000C942A000C9434000C9434000C943400A6
S11300100C9434000C9434000C9434000C9434008C
S11300200C9434000C9434000C9434000C9434007C
S11300300C9434000C9434000C9434000C9434006C
S11300400C9434000C9434000C9434000C9434005C
S11300500C94340011241FBECFE5D4E0DEBFCDBF25
S11300600E9436000C9448000C9400001ABA17BA87
S11300708FEF81BB99B386B3890F82BB2FE986E8E2
S113008091E0215080409040E1F700C00000F2CFA1
S1070090F894FFCF0E
S9030000FC
